:020000040800F2
:10000000801100206501000825110008DD1000089E
:10001000211100080902000809340008000000004E
:10002000000000000000000000000000F1140008C3
:100030005D0E000800000000B9120008BD150008A0
:100040007F0100087F0100087F0100087F01000890
:100050007F0100087F0100087F0100087F01000880
:100060007F0100087F0100087F0100087F01000870
:100070007F0100087F0100087F0100087F01000860
:100080007F0100087F0100087F0100087F01000850
:100090000D0200087F0100087F0100087F010008B1
:1000A0007F0100087F0100087F0100087F01000830
:1000B000291600087F0100087F0100087F01000861
:1000C0007F0100087F0100087F0100087F01000810
:1000D0007F0100087F0100087F0100087F01000800
:1000E0007F0100087F010008311200087F0100082D
:1000F0007F0100087F0100087F0100080000000068
:100100007F010008000000007F0100087F01000857
:100110007F0100087F0100087F0100087F010008BF
:100120007F0100087F0100087F0100087F010008AF
:100130007F0100087F0100087F0100087F0100089F
:100140007F0100087F0100087F01000821120008DC
:10015000DFF80CD000F018F8004800473D350008E3
:10016000801100200648804706480047FEE7FEE76A
:10017000FEE7FEE7FEE7FEE7FEE7FEE7FEE7FEE757
:10018000C115000851010008064C074D06E0E06863
:1001900040F0010394E8070098471034AC42F6D3CE
:1001A000FFF7DAFFA4350008C435000870B501EB8D
:1001B000020410F8015B15F0070301D110F8013BB0
:1001C0002A1106D110F8012B03E010F8016B01F899
:1001D000016B5B1EF9D12B0705D40023521E0FD4EF
:1001E00001F8013BFAE710F8013B02F10202A1EB32
:1001F000030303E013F8015B01F8015B521EF9D51C
:10020000A142D6D3002070BD00BFFEE710B500208C
:1002100015498872486008724872C8740860C872CC
:1002200000211148017341738173C17301744174DA
:10023000817402210D4800F0BFF8A0B10A4A0021E4
:100240000A4800F0DBF90848007A60B906480068FF
:10025000022808D10648006880F0200004490860A0
:1002600001200449086010BD6C09002000640040B2
:100270000C0801407401002010B504460B4884426C
:1002800009D10121480601F039F800214FF0007032
:1002900001F034F808E00121880601F02FF8002170
:1002A0004FF0806001F02AF810BD000000640040AB
:1002B00010B50021837A012202FA03F13D4A126847
:1002C00042F001023B4B1A603A4A1C3212688A43E0
:1002D000384B1C331A60027BCAB9364A0C3212689A
:1002E0008A43344B0C331A604288C38842EA034382
:1002F000304A4032847A42F834300288838842EAB5
:1003000003432C4A4032847A02EBC4025360027BDE
:10031000012A19D1274A0C3212680A43254B0C33A3
:100320001A604288038842EA0343224A4032847AB0
:1003300042F83430C288838842EA03431D4A40327F
:10034000847A02EBC4025360C27A3AB9194A121D88
:1003500012688A43174B1B1D1A6006E0154A121DCE
:1003600012680A43134B1B1D1A60028932B9114AE5
:10037000143212688A430F4B14331A600289012A1F
:1003800006D10C4A143212680A430A4B14331A601D
:10039000427B012A06D1074A1C3212680A43054BE8
:1003A0001C331A60034A126822F00102014B1A60E2
:1003B00010BD00000066004070B504460D460026E2
:1003C0006069284271D0B5F5807F5CD010DC082DC3
:1003D00035D006DC012D20D0022D24D0042D72D181
:1003E00027E0102D31D0202D35D0402D6BD138E0B5
:1003F000B5F5004F60D009DCB5F5007F49D0B5F503
:10040000806F4CD0B5F5006F5DD14FE0B5F5803F02
:100410002DD0B5F5003F56D12FE0A0682D4900F052
:1004200077F9064651E0E068032100F071F90646CD
:100430004BE0E068082100F06BF9064645E0E06813
:10044000102100F065F906463FE02069032100F025
:100450005FF9064639E02069082100F059F906469F
:1004600033E02069102100F053F906462DE0606862
:10047000082100F04DF9064627E06068102100F0E1
:1004800047F9064621E0A069012100F041F906463E
:100490001BE0A069022100F03BF9064615E0A069C7
:1004A000042100F035F906460FE00FE0A069702145
:1004B00000F02EF9064608E06068042100F028F9F3
:1004C000064602E0FFE7002600BF00E000263046B7
:1004D00070BD0000010101001AB143690B43436183
:1004E00002E043698B434361704710B50246002325
:1004F000106820F002001060106840F001001060E9
:1005000000E05B1C506810F0010F03D1A3F57F40A1
:10051000FF38F6D1506810F0010F01D1002010BD56
:100520008879012804D1106840F08000106003E051
:10053000106820F080001060C879012804D110688C
:1005400040F04000106003E0106820F040001060B0
:10055000087A012804D1106840F02000106003E000
:10056000106820F020001060487A012804D110683B
:1005700040F01000106003E0106820F010001060E0
:10058000887A012804D1106840F00800106003E068
:10059000106820F008001060C87A012804D11068A3
:1005A00040F00400106003E0106820F004001060C8
:1005B00088788007CC7840EA04600C7940EA0440EF
:1005C0004C7940EA04500C88641E2043D0611068C6
:1005D00020F001001060002300E05B1C506810F068
:1005E000010F03D0A3F57F40FF38F6D1506810F01B
:1005F000010F01D0002092E7012090E710B500F52F
:10060000D87303EB01131B6803F004031372137A0E
:1006100053B900F5D87303EB01131B6840F2FF7464
:1006200004EA5353136009E000F5D87303EB011398
:100630001B686FF0604404EAD303536000F5D8737D
:1006400003EB01131B6803F00203537200F5D87328
:1006500003EB01135B6803F00F03937200F5D8738B
:1006600003EB01135B681B0AD37400F5D87303EB2B
:1006700001139B68D37200F5D87303EB01139B68D9
:100680001C0A147300F5D87303EB01139B681C0C50
:10069000547300F5D87303EB01139B681B0E93731F
:1006A00000F5D87303EB0113DB68D37300F5D8733F
:1006B00003EB0113DB681C0A147400F5D87303EB19
:1006C0000113DB681C0C547400F5D87303EB0113A1
:1006D000DB681B0E937421B9C36843F02003C36029
:1006E00003E0036943F02003036110BD0021817121
:1006F000C17101720121417200218172C172817048
:10070000C1700921017104214171052101807047E7
:1007100002460A4201D0012070470020FCE770B574
:1007200006460C46E01108D004F07F0000EBC00143
:1007300006F1180000EB810505E004EBC40106F5A5
:100740000D7000EB81050020A8702946304602F0AC
:10075000A7FA002070BD70B505460C46E01108D020
:1007600004F07F0000EBC00105F1180000EB8106EA
:1007700005E004EBC40105F50D7000EB8106314680
:10078000284602F0CFFA002070BD2DE9F041064660
:100790000D4617469846E8110AD005F07F0000EB99
:1007A000C00106F1180000EB81042078E08005E02C
:1007B00005EBC50106F50D7000EB8104C4F8088057
:1007C000E770022F01D1002020712146304602F04F
:1007D000F7F90020BDE8F0812DE9F04705460E4607
:1007E0001746984606F07F0909EBC90105F50D701B
:1007F00000EB8104E760C4F810800020606120787D
:1008000020B92146284602F01FF903E02146284678
:1008100002F0F6FA0020BDE8F0870000034A1268F3
:1008200042EA0112014B1A607047000000080050B4
:1008300070B506460C46E01108D004F07F0000EBCE
:10084000C00106F1180000EB810505E004EBC401CE
:1008500006F50D7000EB81050120A8702946304691
:1008600002F098FA002070BD2DE9F04705460E46CB
:100870001746984606F07F0909EBC90105F11800F3
:1008800000EB8104E760C4F81080002060612078EC
:1008900020B92146284602F0D7F803E02146284631
:1008A00002F0AEFA0020BDE8F08701464FF0A0400C
:1008B000806920F480604FF0A04290614FF4806026
:1008C00050610120704710B50446204602F08EF8B2
:1008D000204602F007FC032802D10020A07003E0AC
:1008E0000120A0704020A0804FF0A040C06820F4FC
:1008F000705040F4A0504FF0A041C8604FF4005039
:100900004861012010BD0000F8B5074600200090A6
:100910000024384602F0B4FC054657E015F0010FFC
:1009200052D0E1B2384602F0C3FC0090009810F0BB
:10093000010F13D0012000FA04F626480068B043E6
:10094000244908600120234AD43202EB4411086094
:10095000E1B221480068426838469047009810F09C
:10096000080F05D008201B4AD43202EB441108605E
:10097000009810F0100F05D01020164AD43202EB68
:1009800044110860009810F0400F05D04020114A33
:10099000D43202EB44110860009810F0020F05D029
:1009A00002200C4AD43202EB44110860009810F087
:1009B000800F09D02146384600F00AFA8020054A07
:1009C000D43202EB44110860641C6D08002DA5D1DF
:1009D0000120F8BD34080050740000202DE9F041DA
:1009E00006460F463946304602F09EFC0121B1739F
:1009F00000213174002511E005EBC50106F1180056
:100A000000EB8104012060702570E5800020E0701B
:100A10004020A0600020E06020616D1C7078A8423A
:100A2000EAD8002510E005EBC50106F50D7000EBD6
:100A30008104002060702570E580E0704020A06097
:100A40000020E06020616D1C7078A842EBD84FF068
:100A5000A040806820F001004FF0A041886030463F
:100A600001F053FE0021304602F072FC304601F0E6
:100A700075FE4FF0A040806840F001004FF0A041AB
:100A80008860BDE8F081000010B5044605480068A4
:100A9000C169204688474FF480104FF0A04148615B
:100AA000012010BD7400002010B504460548006800
:100AB000016A204688474FF400104FF0A04148617A
:100AC000012010BD7400002010B504464FF0A04076
:100AD000406810F0040F04D007480068816A20467F
:100AE00088474FF0A040406840F004004FF0A0411C
:100AF0004860012010BD0000740000207CB506464F
:100B00000024002001900090304602F0C5FB05460D
:100B100041E015F0010F3CD0E1B2304602F0E0FBBD
:100B20000190019810F0010F0AD001201C4A02EB3D
:100B300044110860E1B21B480068026830469047E3
:100B4000019810F0020F04D00220154A02EB441164
:100B50000860019810F0080F09D0124800688168F9
:100B60003046884708200E4A02EB4411086001987D
:100B700010F0100F04D01020094A02EB4411086055
:100B8000019810F0400F04D04020054A02EB4411B8
:100B90000860641C6D08002DBBD101207CBD0000E5
:100BA000080B005074000020F8B506460025002010
:100BB00000904FF0A040806920F010004FF0A0415D
:100BC00088610846006A0090009800F00F0000EB72
:100BD000C00106F50D7000EB81040098C0F343409E
:100BE00007282BD2DFE800F02A040515162A170083
:100BF00025E00098C0F30A1555B1AAB23046E16865
:100C000002F07CFBE0682844E06060692844606191
:100C100015E014E013E00F48006840F400300D497F
:100C20000860082206F58A61304602F067FB0098EA
:100C3000C0F30A1560692844606100E000BF00BF8E
:100C40004FF0A040806940F010004FF0A041886153
:100C50000120F8BD1C08005010B504460548006886
:100C6000C1682046884708204FF0A0414861012014
:100C700010BD00007400002010B50446054800684F
:100C8000416A204688474FF080404FF0A0414861BC
:100C9000012010BD740000202DE9F041054600261A
:100CA00000272548006820F0010023490860002142
:100CB000284602F0E3F9002409E0FF201F4A02EB76
:100CC000441108601E4A02EB44110860641C6878F5
:100CD000A042F2D84FF0FF301749143108600020CD
:100CE000091D0860401E08600B271348103000687B
:100CF000B84338431049103108600B26081F0068BC
:100D0000B0433043091F08600B48001F006820F4FF
:100D1000FE600949091F0860284601F02FFF4FF4C3
:100D200080504FF0A041486106480068016928469C
:100D300088470120BDE8F0810408005008090050F0
:100D4000080B00507400002010B5044605480068E8
:100D50008169204688474FF000404FF0A04148612C
:100D6000012010BD740000201CB504460020019035
:100D7000A07B0090134800684169204688471248CC
:100D800000680190A07AB0B1019810F0010F12D064
:100D90009DF8000003280ED10C48006840F00100C7
:100DA0000A4908600846006840F002000860012116
:100DB000084600F05FFA4FF400604FF0A041486130
:100DC00001201CBD7400002008080050000E0050D7
:100DD0002DE9F84307460E460025A846002000905E
:100DE00006EBC60107F1180000EB8104D4E9040109
:100DF000451AA068A84200D2A568E81C4FEA9008EE
:100E0000154901EB4610006800901AE0D4E904018E
:100E1000451AA068A84200D2A568E81C4FEA9008CD
:100E2000ABB2F2B23846E16802F0D0FAE06828448A
:100E3000E060606928446061074901EB4610006882
:100E40000090009880B2404503D9D4E9041088424C
:100E5000DCD30120BDE8F88318090050704710B5B5
:100E600086B00446684600F069FA42F210710198B3
:100E7000B0FBF1F06043059002E00598401E05903C
:100E800005980028F9D106B010BD0000014908609E
:100E900070470000140401402DE9F041024600258E
:100EA0000026002000230024002791F803C00CF046
:100EB0000F0591F803C01CF0100F03D091F802C089
:100EC0004CEA050591F800C0BCF1000F31D0146860
:100ED00000202BE04FF0010C0CFA00F3B1F800C039
:100EE0000CEA03069E4220D183004FF00F0C0CFA4F
:100EF00003F7BC4305FA03FC4CEA040491F803C071
:100F0000BCF1280F06D14FF0010C0CFA00FCC2F81E
:100F100014C00AE091F803C0BCF1480F05D14FF0AE
:100F2000010C0CFA00FCC2F810C0401C0828D1D3F8
:100F30001460B1F800C0BCF1FF0F34D95468002030
:100F40002EE000F1080C4FF0010808FA0CF3B1F89C
:100F500000C00CEA03069E4221D183004FF00F0C23
:100F60000CFA03F7BC4305FA03FC4CEA040491F8BD
:100F700003C0BCF1280F05D100F1080C08FA0CF8E9
:100F8000C2F8148091F803C0BCF1480F07D100F1FA
:100F9000080C4FF0010808FA0CF8C2F81080401C49
:100FA0000828CED35460BDE8F0810000F0B50A46B1
:100FB000002300240021002500F00046B6F1004F78
:100FC00002D11D4EF16901E01B4E7168C0F303456B
:100FD00083B200F44016B6F5401F08D121F07061CD
:100FE000154E766826F07066134F7E6012E000F4AE
:100FF0008016B6F5801F06D1032606FA05F4A14334
:1010000041F0706106E0460D360103FA06F6B14381
:1010100041F0706122B1460D360103FA06F6314304
:1010200000F00046B6F1004F02D1034EF16101E03D
:10103000014E7160F0BD00000000014070B5054632
:101040000C4608480560204600F00EF800BF054831
:1010500000680028FBD100214FF0804000F057FBD2
:1010600070BD00003C0000203EB5044600214FF05A
:10107000804000F04CFB00220121880700F063FB58
:10108000022C02D10B20019004E0012C02D142F687
:10109000DF6001901048006880B2ADF800000020C9
:1010A000ADF80800ADF8020069464FF0804000F04E
:1010B000BFFA0121880700F027FB0121880700F013
:1010C00017FB01221146900700F03DFB0121880724
:1010D00000F01DFB3EBD00004400002000BFFEE705
:1010E0000D48806940F004000B4988610B48006896
:1010F00000F44020094908600846006800F44000F8
:1011000008600846006840F48030086008460068BF
:1011100040F4801008607047001002400008014051
:1011200000BFFEE77047000070B5002100220023D9
:10113000C478002C4ED02D4C246804F4E064B4F53F
:10114000E06F02D100BF042326E0284C246804F499
:10115000E064B4F5C06F02D1012203231CE0234CEC
:10116000246804F4E064B4F5A06F02D102220223E3
:1011700012E01E4C246804F4E064B4F5806F02D1E0
:101180000322012308E0194C246804F4E064B4F558
:10119000407F01D1042200234478C2F1040504FAFF
:1011A00005F18478C3F104060F2535412C40214315
:1011B00009010F4C0678A155047804F01F0501249D
:1011C000AC4005786D114FF0E02606EB8505C5F8BB
:1011D000004109E0047804F01F050124AC40054DEE
:1011E0000678761145F8264070BD00000CED00E051
:1011F00000E400E080E100E002490143024A11609E
:10120000704700000000FA050CED00E0024A0A40B9
:101210000243024B1A60704780FFFF1F08ED00E099
:1012200010B5024800F08DFF10BD00007C010020C9
:1012300010B50D48807A90B10C48006820F0060087
:101240000A49086000F0BCF90948006800F042F95A
:101250000121080300F032F8034802F09BF84FF434
:101260008020FFF713FE10BD7C01002010ED00E090
:101270004000002010B5024600200D4B186820F0F9
:101280000300104318600B4B1B6843F00403094C28
:101290002360012901D130BF02E040BF20BF20BF41
:1012A000044B1B6823F00403024C236010BD0000B4
:1012B0000070004010ED00E07047000029B1064AC0
:1012C00052690243044B5A6104E0034A5269824363
:1012D000014B5A61704700000010024029B1064AD4
:1012E000D2690243044BDA6104E0034AD2698243C3
:1012F000014BDA61704700000010024029B1064A34
:1013000012690243044B1A6104E0034A12698243E2
:10131000014B1A61704700000010024029B1064AD3
:1013200092690243044B9A6104E0034A9269824342
:10133000014B9A6170470000001002402DE9F04710
:101340000021002200268C46002588460027894679
:1013500000245A4B5B6803F00C0121B1042905D02D
:1013600008294DD105E0564B03604CE0554B036016
:1013700049E0524B5B6803F47012504B5B6803F01A
:101380000056730FC3EB031606EB92420D2A01D0F1
:10139000921C00E00622494B5B6803F4803CBCF1E0
:1013A000000F03D1484B5343036028E0434BDB6AF3
:1013B00003F48038414BDB6A03F00F035F1CB8F184
:1013C000000F05D13F4BB3FBF7F35343036016E027
:1013D0003A4BDB6AC3F3031303F10109374BDB6AB2
:1013E000C3F303240F2C01D0A41C00E0641D354B73
:1013F000B3FBF9F36343B3FBF7F35343036002E03A
:101400002F4B036000BF00BF2C4B5B6803F0F00163
:1014100009092E4B5D5C0368EB404360274B5B681A
:1014200003F4E061090A2A4B5D5C4368EB4083608A
:10143000224B5B6803F46051C90A254B5D5C43682D
:10144000EB40C3601D4B5B6803F08053990E1B4B50
:101450005B68C3F38133194408292BD2DFE801F01C
:1014600004080C13171B2226C3685B08036121E0E4
:10147000C3689B0803611DE04FF0060AC368B3FB15
:10148000FAF3036116E0C368DB08036112E0C36886
:101490005B0803610EE04FF00C0AC368B3FBFAF37C
:1014A000036107E0C368DB08036103E0C3681B094D
:1014B000036100BF00BFBDE8F087000000100240DC
:1014C00000127A00001BB70000093D005C010020FB
:1014D0006C0100200549496821F44001034A51602C
:1014E00011464968014351607047000000100240F6
:1014F000704710B500F002F810BD00000CB50020D8
:10150000019000902B48006840F480302949086021
:1015100000BF2848006800F4003000900198401C8B
:101520000190009820B90198A0F57F41FF39F0D1D2
:101530002048006810F4003F02D00120009001E034
:10154000002000900098012833D11A4840681949BA
:1015500048600846406848600846406840F480603B
:1015600048600846406814490840124948600846E7
:10157000406840F4102048600846006840F08070E1
:10158000086000BF0B48006810F0007FFAD00948DF
:10159000406820F00300074948600846406840F072
:1015A0000200486000BF0348406800F00C000828B3
:1015B000F9D10CBD00100240FFFFC0DF70470000F2
:1015C00010B51548006840F001001349086008464E
:1015D00040681249084010494860084600681049B0
:1015E00008400D4908600846006820F48020086023
:1015F000084640680B4908400749486008460068AB
:1016000020F0A05008600020C8624FF47F0088607E
:10161000FFF76FFF10BD0000001002400000FFE068
:10162000FFFFF6FEFFFF00DF10B501F0F3FD10BD78
:1016300000220288214B984220D0214B98421DD095
:10164000B0F1804F1AD01F4B984217D01E4B9842D2
:1016500014D01E4B984211D01D4B98420ED01D4BFA
:1016600098420BD01C4B984208D01C4B984205D096
:101670001B4B984202D01B4B984204D14FF68F73FC
:101680001A404B881A43184B984202D1174B984284
:1016900004D04FF6FF431A400B891A4302808B880F
:1016A00083850B880385054B984202D0044B9842F2
:1016B00001D18B7A0386012383827047002C01407D
:1016C000003401400004004000080040000C0040CD
:1016D000004C0140005001400054014000180040FF
:1016E000001C00400020004000100040001400409A
:1016F00021B1028842F08002028004E002884FF6A5
:101700007F731A4002807047CA430282704721B13A
:10171000028842F00102028004E002884FF6FE7364
:101720001A400280704710B5024600230024108A38
:1017300000EA0103908900EA010413B10CB1012011
:1017400010BD0020FCE71AB183890B43838102E0BE
:1017500083898B438381704770B50546264800789E
:10176000012846D02548006825490968884200D1EB
:1017700070BD2248006822490968884206D91F487E
:101780000068C0F500701F49086006E01C4800684A
:101790001A490968401A1B4908601A48006840281D
:1017A00001D9402407E01748008884B2402C02D1B8
:1017B0000120154908601548104909684218234658
:1017C00081212846FFF750F80C48006820440B4957
:1017D00008600C480068001B0A490860012006499F
:1017E000087006480068B0F5007F02D10020034968
:1017F000086000BFBCE70000C4000020BC0000205F
:10180000B8000020C0000020B400002043070020E2
:1018100070B505460C46E08888B1207810F0800F3E
:1018200005D0E2880749284600F0F1F907E0607822
:1018300005490860E2880349284600F0C3F9002002
:1018400070BD000054010020C800002070B505469E
:101850000E461F480078012837D11E48006888B915
:101860001D480068012809D100201B490860002399
:101870001A4681212846FEF7F7FF26E0002014498A
:10188000087022E013480068402801D9402409E08C
:101890001048008884B20F480068402802D1012017
:1018A0000D4908600D480E490968421823468121F8
:1018B0002846FEF7D9FF0A48006820440849086016
:1018C00004480068001B03490860002070BD000048
:1018D000C4000020C0000020B40000204307002006
:1018E000BC00002070B504460D4605EBC50104F5AB
:1018F0000D7000EB8100808A86B24023034A0321E9
:101900002046FEF769FF002070BD0000030700209D
:1019100070B504460D4681212046FEF71CFF0321C9
:101920002046FEF718FF82212046FEF714FF002014
:1019300070BD0000014604480068FF2802D0FF2067
:10194000014A106000207047C80000200246432072
:1019500008800148704700000C0100202DE9F0418B
:1019600005460C463A260B4F60882121B1EB202F0B
:1019700008D1E0883A2801DD3A2000E0E0880646F8
:10198000044F093732463946284600F040F9002016
:10199000BDE8F0811501002070B504460D46012216
:1019A0000249204600F033F9002070BDB00000204D
:1019B00070B504460D464023022281212046FEF7E1
:1019C000E4FE4023022203212046FEF7DEFE082328
:1019D000032282212046FEF7D8FE4023034A03213A
:1019E0002046FEF7F9FE002070BD0000030700202E
:1019F00010B50446074801680068401C054A10609D
:101A0000052905D10020114608602046FFF7A4FEF5
:101A1000002010BD5001002070B505460C46A0788E
:101A2000012803DAA0780449086003E0214628462B
:101A300000F0A9F8002070BDB000002070B5044689
:101A40000D46D4F868042946426820469047002095
:101A500070BD70B504460D460026287810F00300CE
:101A600004D001282BD0022868D13EE0A07B0228B8
:101A700002D003281CD100E000BF688801280FD1E4
:101A800000216161D4F86804C06928B1D4F8680401
:101A90002946C26920469047204600F0A8F806E093
:101AA0006888022803D12946204600F06CF804E03B
:101AB0002946204600F067F800BF00BF43E0607B86
:101AC000022802D003280DD104E02946204600F068
:101AD0005AF808E02879012803DD2946204600F05D
:101AE00052F800E000BF00BF2DE02E79A07B022855
:101AF00002D003281FD107E02EB1802E03D031463B
:101B00002046FEF795FE17E0688880B97EB1802EEA
:101B10000DD031462046FEF702FED4F86804C069B5
:101B200028B1D4F868042946C26920469047204667
:101B300000F05DF800E000BF00BF04E02946204649
:101B400000F021F800BF00BF70BD2DE9F04106464E
:101B50000C46154600272B46224600213046FEF74C
:101B60003BFE3846BDE8F0812DE9F04106460C46C3
:101B7000154600272B46224600213046FEF774FE0C
:101B80003846BDE8F08170B504460D4680212046F8
:101B9000FEF74EFE00212046FEF74AFE204600F0EA
:101BA000EDFF70BD70B5044600250521617300236B
:101BB0001A4619462046FEF70FFE204600F0DEFFCB
:101BC000284670BD2DE9F04104460E461546002713
:101BD000C4F85052C4F84C52032161732B4632466C
:101BE00000212046FEF7F8FD3846BDE8F08170B5CB
:101BF000044600250421617300231A461946204635
:101C0000FEF732FE204600F0B9FF284670BD2DE9F0
:101C1000F04104460E461546002765632563022100
:101C200061732B46324600212046FEF71DFE3846E2
:101C3000BDE8F08170B505460E46002E42D105F193
:101C40001804687B022834D1A168A06988420AD9A7
:101C5000A168A069401AA061208B82B22846E16881
:101C6000FFF782FF25E0A168E069B0FBF1F201FB1C
:101C7000120078B9A168E06988420BD3D4E9070162
:101C8000884207D2002211462846FFF76DFF002048
:101C900020620EE0D5F86804006A38B1A87B0328FA
:101CA00004D1D5F86804016A284688472846FFF71A
:101CB00079FFA87C012812D1284600F0F4FA00210F
:101CC000A9740CE0D5F86804806A40B1A87B0328A9
:101CD00005D1D5F868043146826A2846904700202D
:101CE00070BD70B505460E464EBB05F50D74687B9C
:101CF000032831D1A168A069884210D9A168A069E0
:101D0000401AA061A368A069984201D2A06900E0CE
:101D1000A06882B22846E168FFF717FF1CE0D5F8FB
:101D20006804406A38B1A87B032804D1D5F8680458
:101D3000416A284688472846FFF759FF0CE0D5F846
:101D40006804C06A40B1A87B032805D1D5F86804AF
:101D50003146C26A28469047002070BD01460020E7
:101D6000704770B504460D460026A07B032819D1A4
:101D70002879012811DCD4F86804C06830B1D4F89F
:101D800068042946C268204690470646E88840B95C
:101D90003EB92046FFF72BFF03E029462046FFF718
:101DA000F2FE04E029462046FFF7EDFE00BF00BF2B
:101DB000304670BD014601224A740020704710B5BC
:101DC0000446D4F868040021426820469047002168
:101DD0006174002010BD38B504460D460020009007
:101DE000E888012804D029462046FFF7CCFE18E0F9
:101DF000A07B022802D003280DD105E0012269460C
:101E00002046FFF704FF0BE0012204F10C012046FD
:101E1000FFF7FDFE04E029462046FFF7B4FE00BFB1
:101E200000BF38BDF8B504460E46307810F0030FF9
:101E300071D170880012082868D2DFE800F06704CA
:101E4000161E67675D62A078D4F86C140A6869464C
:101E500090470546F088402802D0A07B012801D198
:101E600008200090C4F8705456E0A078D4F86814A4
:101E7000CA6B6946904705464EE0B078062834D2D2
:101E8000DFE800F0030B131B232BA078D4F86C14AD
:101E90004A686946904705462CE0A078D4F86C144F
:101EA0008A6869469047054624E0A078D4F86C1407
:101EB000CA686946904705461CE0A078D4F86C14BF
:101EC0000A6969469047054614E0A078D4F86C1476
:101ED0004A696946904705460CE0A078D4F86C142E
:101EE0008A6969469047054604E031462046FFF777
:101EF0004AFEF8BD00BF0FE031462046FFF743FE23
:101F0000F7E731462046FFF73EFEF2E7314620462E
:101F1000FFF739FEEDE716E000BFBDF8000088B11D
:101F2000F08878B1F088BDF80010884202DDBDF875
:101F3000000000E0F0880090BDF80020294620460F
:101F4000FFF765FE0EE0307800F00300012809D1AC
:101F5000D4F86804806828B1D4F8680431468268EF
:101F60002046904700BFC4E770B504460D46A07BED
:101F7000022802D0032818D104E029462046FFF7A2
:101F800002FE13E0287901280ADCD4F8680400690D
:101F900050B1D4F86804294602692046904703E00E
:101FA00029462046FFF7EFFD00E000BF00BF70BDEF
:101FB0007CB504460E46002001900090307810F069
:101FC000030004D001281FD002286CD138E0A07B88
:101FD000022802D0032810D100E000BF01200190A8
:101FE000606920B1BDF8040040F0020001900222B7
:101FF00001A92046FFF70BFE04E031462046FFF71B
:10200000C2FD00BF00BF53E0A07B022802D003281E
:1020100013D104E031462046FFF7B5FD0EE03079DC
:10202000012805DC022201A92046FFF7F0FD03E0AC
:1020300031462046FFF7A7FD00E000BF00BF37E0B4
:102040003579A07B022802D0032829D107E02DB1E1
:10205000802D03D029462046FEF7EAFB21E005F05B
:10206000800080280CD105F07F0000EBC00104F156
:10207000180000EB8100807860B10120009009E039
:1020800005EBC50104F50D7000EB8100807808B107
:1020900001200090022269462046FFF7B8FD00E0CB
:1020A00000BF00BF04E031462046FFF76CFD00BFD3
:1020B00000BF7CBD70B513460122B0B103261446A3
:1020C000551CEAB20E550AE010F8016B1446551C77
:1020D000EAB20E5500261446551CEAB20E55047895
:1020E000002CF1D11A801C780C7070BD2DE9F041E4
:1020F00004460F4615461E46204601F023F82046AA
:10210000FFF72CFEC4F86864C4F86C5439462046C6
:10211000FEF764FC204600F0FFFFBDE8F08110B53B
:102120000446D4F86804416B20468847002010BD5F
:1021300010B50446D4F86804816B20468847002017
:1021400010BD70B5064600250024304601F08CF81D
:1021500000286CD04FF0A04040694FF0A041896941
:1021600000EA01040CB9002070BD14F4002F03D064
:102170003046FEF7C3FC054314F4802F03D03046ED
:10218000FEF7C2FB054314F0020F03D002204FF00C
:10219000A041486114F4806F03D03046FEF785FB00
:1021A000054314F4006F03D03046FEF7DDFD054310
:1021B00014F0004F03D03046FEF7C6FD054314F07F
:1021C000080F03D03046FEF747FD054314F0100F0B
:1021D00003D03046FEF7E8FC054314F4805F03D0DB
:1021E0003046FEF759FD054314F4005F03D0304636
:1021F000FEF769FB054314F4801F03D03046FEF759
:1022000043FC054314F4001F03D03046FEF74CFC9A
:10221000054314F0804F03D03046FEF72DFD0543F3
:1022200014F0040F03D03046FEF74EFC0543284659
:102230009AE790F850240A7090F851244A7090F868
:10224000523490F8532403EB02224A8090F854341D
:1022500090F8552403EB02228A8090F8563490F8C7
:10226000572403EB0222CA80CB8883630123437384
:102270007047704710B5044640230022114620469F
:10228000FEF783FA4023002280212046FEF77DFAE4
:102290000121A173002010BD0146CA7B8A7303226D
:1022A0008A730020704701460020704710B504462D
:1022B000D4F86804006B20B1D4F86804016B2046A0
:1022C0008847002010BD70B504460D46A888D8B9CF
:1022D000E888C8B9A87800F07F06A07B032804D15D
:1022E00029462046FFF74FFC12E02674314620466F
:1022F000FEF794FA2046FFF77AFC16B10221A1738B
:1023000006E00121A17303E029462046FFF73BFCCC
:1023100070BD70B504460D46D4F8680429460268BD
:1023200020469047002070BD70B504460D46A87841
:102330002B49087008460078012804DD294620460C
:10234000FFF721FC4AE0A07B022802D003283FD1FE
:1023500014E02348007868B12148007820730321F5
:10236000A1731F4801782046FFF7D3FF2046FFF7EF
:102370003EFC02E02046FFF73AFC2EE018480078C9
:1023800068B90221A17316480078207314480178B7
:102390002046FFF753FB2046FFF729FC17E0207B80
:1023A0000F49097888420FD0217B2046FFF746FB72
:1023B0000B48007820730A4801782046FFF7A9FFF0
:1023C0002046FFF714FC02E02046FFF710FC04E073
:1023D00029462046FFF7D7FB00BF00BF70BD0000B5
:1023E000AC00002070470000F8B504460D460026FA
:1023F0000027287810F0600004D001283CD0022883
:1024000079D14FE0A07B022802D0032831D100E02F
:1024100000BF688801280FD101216161D4F86804E8
:10242000806928B1D4F8680429468269204690471B
:102430002046FFF7DCFB1BE06888022818D12879CA
:10244000B0B9304800680090A8880712062F09D25A
:10245000DFE807F008030405060703E002E001E0F7
:1024600000E000BF00BF0121A1742046FFF7BFFBC1
:1024700000E000BF00BF43E0607B022802D00328D9
:102480000DD104E029462046FFF77DFB08E02879BE
:10249000012803DD29462046FFF775FB00E000BF59
:1024A00000BF2DE0A07B022802D0032820D107E046
:1024B0002EB1802E03D031462046FEF7B9F918E040
:1024C000688830B92EB1802E03D031462046FEF701
:1024D000AFF9D4F86804806928B1D4F868042946B3
:1024E0008269204690472046FFF781FB01E002E029
:1024F00000BF00BF04E029462046FFF744FB00BFB1
:1025000000BFF8BD0408005070B504460D46A07B1E
:10251000022802D0032818D104E029462046FFF7FC
:1025200032FB13E0287901280ADCD4F868044069FA
:1025300050B1D4F86804294642692046904703E028
:1025400029462046FFF71FFB00E000BF00BF70BD1B
:102550001CB5044669462046FFF76BFE9DF8000057
:1025600010F0600004D0202807D040280FD109E0E7
:102570006946204600F016F811E069462046FFF74C
:10258000F0FB0CE06946204600F0BCF807E09DF83F
:10259000000000F080012046FEF74AF900BF00BFAE
:1025A00000201CBD70B505460C466078034951F803
:1025B0002020214628469047002070BD780000204A
:1025C00001468A7BCA7304228A73002070477047D1
:1025D00070B504460D4634B1012C04D12A46034996
:1025E00003A0FFF767FD014870BD0000040600204E
:1025F0005669727475616C20436F6D506F727420F0
:10260000436F6E6669670000024612200880014829
:10261000704700001C00002070B504460D4634B120
:10262000012C04D12A46034903A0FFF743FD0148CA
:1026300070BD0000040600205669727475616C203C
:10264000436F6D506F727420496E7465726661637A
:102650006500000002460420088001487047000021
:102660003800002070B505460C462246024903A0FA
:10267000FFF720FD004870BD0406002047443332B8
:10268000204D6963726F656C656374726F6E696308
:102690007300000070B504460D4634B1012C04D11E
:1026A0002A46034903A0FFF705FD014870BD00005D
:1026B0000406002047443332205669727475616CF9
:1026C00020436F6D506F727420696E204653204D09
:1026D0006F64650070B504460D4634B1012C04D119
:1026E0002A46034903A0FFF7E5FC014870BD00003E
:1026F000040600203030303030303030303232425A
:102700000000000002460020704770B50446002516
:10271000204600F037F94FF0A040806B40F4803045
:102720004FF0A04188630846806B40F480208863A6
:102730000846806B40F4002088630846806820F0DB
:1027400080008860607A20B10846806B40F4801079
:102750008863142000F07AFD284670BD2DE9F04111
:102760000646002700258048006800207E49086052
:102770007E48006820F4C0507C490860F07A012847
:1027800051D10846006820F00300C01C08604FF0DB
:10279000A040406A6FF30F0040F080004FF0A0416E
:1027A00048620846806A80B240F400108862084699
:1027B000806A6FF30F0040F080008862802520352A
:1027C0006B48006880B240F40000C1F8040168481A
:1027D00000686FF30F0040EA0500C1F8040105F13D
:1027E00080056448006880B240F40010C1F8080118
:1027F000604800686FF30F0040EA05005D4908601B
:1028000005F120054FF0A040D0F80C0180B24FF048
:10281000A041C1F80C01584800686FF30F0040EA6E
:102820000500C1F80C014FF01001304600F026FC05
:10283000304600F001FC4D481030006800204B4944
:1028400010310860081D00680020091D0860081D7F
:1028500000684FF0FF30091D0860081D0068002067
:10286000091D0860002438E0444901EB4410006869
:1028700010F0004F12D001EB4410006840F080408F
:102880000A4602EB44110860114601EB441000684F
:1028900040F0006002EB4411086008E0374901EBAA
:1028A0004410006800200A4602EB441108603349D6
:1028B000103101EB4410006800200A4602EB44117D
:1028C00008602E49083101EB4410006840F0FF0019
:1028D0000A4602EB44110860641C7078A042C3D819
:1028E000002438E0264901EB4410006810F0004F46
:1028F00012D001EB4410006840F080400A4602EB21
:1029000044110860114601EB4410006840F000607B
:1029100002EB4411086008E0184901EB441000681C
:1029200000200A4602EB441108601549103101EB02
:102930004410006800200A4602EB44110860104968
:10294000083101EB4410006840F0FF000A4602EB3A
:1029500044110860641C7078A042C3D8304600F06F
:1029600047FB3846BDE8F081000E005000080050DB
:1029700004010050080100500C01005000090050F3
:10298000000B005070B506460025002400BF032050
:1029900000F063FC601C04461349884201D9002002
:1029A00070BD4FF0A040006910F0004FEFD04FF025
:1029B000A040006940F001004FF0A04108610024F0
:1029C00000BF601C04460849884200D905E04FF06A
:1029D000A040006910F0010FF3D100BF032000F008
:1029E0003CFC2846DCE70000400D030008B501462A
:1029F000002000220092134A12680092114AF83A0D
:102A00001268C2F3410232B1012A05D0022A07D06E
:102A1000032A0AD101E000BF00BF009A009204E03F
:102A2000009A42F00302009200BF00BF054B009ADB
:102A30001A60044AFC3A126842F48072014BFC3B73
:102A40001A6008BD000900507CB504460020002231
:102A50000023019300934B78012B4AD1454B1B680F
:102A60000193444B10331B6800930B6923B9009BFF
:102A700023F07F03009316E08D680B69AB420AD9FF
:102A80008B680B61009B23F07F0300938B68009D94
:102A90002B43009307E0009B23F07F0300930B6917
:102AA000009D2B430093009B23F4C0130093009BD5
:102AB00043F4002300932F4D1035009B2B60019BA6
:102AC00043F080630193019B43F000430193294D40
:102AD000019B2B600B69002B4AD00D780123AB4082
:102AE0001A43244BCC3B1B681343224DCC3D2B6037
:102AF0003EE00B78204D05EB43131B6801930B78E8
:102B00001D4D103505EB43131B6800930B6943B94A
:102B1000009B23F07F0300938B68009D2B43009361
:102B200009E08B680B61009B23F07F0300938B68A7
:102B3000009D2B430093009B23F400230093009BF4
:102B400043F4002300930D780B4E103606EB451529
:102B5000009B2B60019B43F080630193019B43F03A
:102B6000004301930D78044E06EB4515019B2B6045
:102B70007CBD000000090050000B005008B500218A
:102B80000091009921F07F010091009941F0180116
:102B90000091009921F400210091009941F4002155
:102BA0000091009921F0C0410091009941F0C0418D
:102BB0000091024A0099116008BD0000100B0050FE
:102BC0003CB5034600200022019200924A78012A77
:102BD0002BD10C78A240019C224301920A782E4C02
:102BE00004EB421212680092009A12F4004F49D18D
:102BF0008A68009C22430092CA78009C44EA824280
:102C00000092CA88009C44EA82520092009A42F0E4
:102C100080520092009A42F4004200920C781E4DBD
:102C200005EB4414009A22602CE00C780122A240AB
:102C3000019C44EA024201920A78184C04EB4212C9
:102C400012680092009A12F4004F1BD18A68009C0F
:102C500022430092CA78009C44EA82420092CA88C9
:102C6000009C44EA82520092009A42F08052009204
:102C7000009A42F4004200920C78084D05EB44148F
:102C8000009A2260044AE43A1268019C2243024CF2
:102C9000E43C22603CBD000000090050000B0050E5
:102CA00038B502460020002300934B78012B1AD13F
:102CB0000B781A4C04EB43131B680093009B23F41E
:102CC00000130093CB78032B02D0CB78022B03D1D7
:102CD000009B43F0805300930C78104D05EB441497
:102CE000009B236019E00B780D4C04EB43131B6829
:102CF0000093009B23F400130093CB78032B02D0A6
:102D0000CB78022B03D1009B43F0805300930C78C7
:102D1000034D05EB4414009B236038BD00090050AF
:102D2000000B00503CB503460020002201920092A7
:102D30004A78012A0FD10C78A240019C22430192CB
:102D4000009A22F4004200920C78104D05EB4414D6
:102D5000009A226010E00C780122A240019C44EA13
:102D600002420192009A22F4004200920C78084D2F
:102D700005EB4414009A2260044AE43A1268019C6C
:102D8000A243024CE43C22603CBD0000000900501C
:102D9000000B005038B502460020002300934B780A
:102DA000012B18D10B78144C04EB43131B680093D0
:102DB000009B13F0004F03D0009B43F0804300932F
:102DC000009B43F4001300930C780B4D05EB441467
:102DD000009B23600FE00B78084C04EB43131B6847
:102DE0000093009B43F4001300930C78034D05EB14
:102DF0004414009B236038BD00090050000B0050B4
:102E0000FCB505460C4600260027002001900090E6
:102E10006078012877D120786B4901EB4010006879
:102E2000019020786849103101EB40100068009053
:102E3000206960B900986FF3120000906349009810
:102E400008400090009840F40020009016E00098A0
:102E50006FF31200009020690099084300905B49CD
:102E60000098084000902069401EA1680844B0FB0B
:102E7000F1F0009941EAC040009000BF2178524A29
:102E8000103202EB411100980860E078012810D15F
:102E90004D48F8380068C0F30D2010F0010F04D140
:102EA000019840F00050019003E0019840F08050FC
:102EB0000190019840F080600190019840F000403E
:102EC00001902178404A02EB411101980860E078B6
:102ED00001280CD0206950B12178012000FA01F7B7
:102EE0003948CC38006838433749CC390860E07835
:102EF000012866D1208A83B222782846E16800F052
:102F000065FA5EE0FFE72078314901EB4010006888
:102F1000019020782E49103101EB4010006800909C
:102F2000206980B900986FF312000090A0680099A2
:102F3000084300902549009808400090009840F40C
:102F4000002000901AE02149009808400090A068F5
:102F5000401E21690844A168B0FBF1F0009941EAE4
:102F6000C040009000986FF312000090A068009994
:102F7000C1F3C94148430099084300902178144A9D
:102F8000103202EB411100980860E07801280AD164
:102F9000607920B1019840F00050019003E0019861
:102FA00040F080500190019840F0806001900198BD
:102FB00040F0004001902178054A02EB4111019850
:102FC00008603046FCBD000000090050FFFF07E02C
:102FD000000B00504FF0FF314FF0A04251606FF0F6
:102FE00080415161014991617047000000080080F3
:102FF00070B50546002600244FF0A04080690020EF
:103000004FF0A04188616FF0804048612846FFF78B
:10301000E1FF102406480443064804434FF0A04053
:103020008069A04320434FF0A0418861304670BDC5
:10303000083C3C000400004070B506460024002512
:103040004FF0A040006940F010004FF0A04108612F
:1030500000BF681C05460849884200D905E04FF0CA
:10306000A040006910F0100FF3D100BF032000F062
:10307000F4F8204670BD0000400D03002DE9F0413A
:1030800007460C46002500264FF0A040006920F4BA
:10309000F86040EA84104FF0A041086108460069DA
:1030A00040F02000086100BF701C064608498842B5
:1030B00000D905E04FF0A040006910F0200FF3D1D7
:1030C00000BF032000F0C9F82846BDE8F0810000E9
:1030D000400D030001464FF0A040406900F00100A0
:1030E00070470000014600200A4A1268C2F34102FC
:1030F00032B1012A06D0022A07D0032A07D102E002
:10310000032004E000BF022001E0012000BF00BF57
:10311000704700000808005038B504464FF4A0601E
:10312000FEF76AF843208DF8000002208DF80100B8
:1031300000208DF8020001208DF803006846FDF79D
:10314000F3FF38BD10B586B0044601A8FEF7F6F8C7
:103150001C490198884207D14FF480001A49086041
:1031600003201A49086021E019490198884206D1D4
:1031700000201549086005201449086016E015492B
:103180000198884207D14FF440000F49086007209A
:103190000E4908600AE010490198884206D14FF4B0
:1031A00000000949086009200849086006480068CD
:1031B000FEF790F901210803FEF780F800F00EF801
:1031C00006B010BD006CDC0240000020440000206E
:1031D00000A24A0400D8B805000E270708B5002150
:1031E0004FF00060FEF712F84FF4A060FEF704F80D
:1031F0001C208DF8000001208DF801008DF80200E0
:103200008DF803006846FDF78FFF01210846FEF7A1
:1032100065F808BD10B501218807FEF784FA88B16A
:1032200001218807FEF770FA0748006828B10648B0
:103230000068401E0449086004E000214FF080400F
:10324000FEF765FA10BD00003C00002010B50446F2
:1032500001212046FDF7F2FE10BD10B50446022103
:103260002046FDF7EBFE10BD00B502461046FFF705
:1032700031FF012801D0012000BD0020FCE7000043
:10328000014604480068034A121D1268104080B2CB
:103290007047000018080050014604480068034ABF
:1032A000121D12681040000C7047000018080050F2
:1032B00030B504460023002208480268074824303D
:1032C000036823FA01F000F0010042EAC012034D46
:1032D000F83505EB41100068104030BD1008005073
:1032E0000246044B03EB41100068034B1B68184077
:1032F00070470000080B005014080050F0B5064657
:103300000023D01CC71700EB9777BC10054D00BFFA
:1033100003E0286808605B1C091DA342F9D3084636
:10332000F0BD000000100050024600200123937001
:103330004023938001290AD10123D37208231370FB
:10334000042353704FF4A073D38002231372704789
:1033500070B506460C460025012C0AD14FF0A0405E
:10336000C06820F0804040F000504FF0A041C8609D
:103370000AE04CB94FF0A040C06820F0005040F087
:1033800080404FF0A041C8603220FFF75FFF284621
:1033900070BD000008B5817A99B10A49096811F039
:1033A000010F0DD0084909680091009921F0020130
:1033B0000091009921F001010091034A00991160E8
:1033C00000BF08BD08080050000E00502DE9F04174
:1033D0008446002700250024D81C4FEAE07800EB43
:1033E00098784FEAA805DFF81C8008EB023600BF8A
:1033F00003E008683060641C091DAC42F9D338460C
:10340000BDE8F0810010005000BFFEE702E008C8F0
:10341000121F08C1002AFAD170477047002001E04E
:1034200001C1121F002AFBD17047000000B589B00E
:1034300001210846FDF772FF01210820FDF76EFF0C
:1034400001214806FDF74AFF4FF48070ADF82000D7
:1034500048208DF8230003208DF8220008A9354864
:10346000FDF71AFD4FF40070ADF8200018208DF81C
:10347000230003208DF8220008A92E48FDF70CFD3B
:1034800001214FF4EA10FDF791FD2B48FCF7F4FE03
:1034900005A8FDF72BF900208DF81A008DF81B0008
:1034A0008DF81C0001208DF81D0000208DF81E00F5
:1034B0008DF81F008DF816008DF8170009208DF883
:1034C000180004208DF819000520ADF8140005A996
:1034D0001948FDF70AF801208DF80E0000208DF83C
:1034E0000F0001208DF810000020ADF80400ADF8A9
:1034F0000600ADF80800ADF80A00ADF80C00012098
:103500008DF8110001A8FCF7D3FE012202210A4820
:10351000FCF7E2FF14208DF8000000208DF8010078
:103520008DF8020001208DF803006846FDF7FCFDD0
:1035300009B000BD000C014000640040144B154A66
:1035400001211548FEF7D2FD1448FDF7F7FE00BF34
:10355000FDF7C6FDFFF76AFF1148006880F0200004
:103560000F4908600846006880F010000860642079
:10357000FDF775FC0A48006880F0200008490860E3
:103580000846006880F01000086000BFFEE70000F9
:10359000CC000020000000207C010020F00500206D
:1035A0000C080140C4350008000000207C01000028
:1035B000AC010008BC3600087C01002004100000AB
:1035C0001C3400081309261B0855041A65041A95B3
:1035D000041AD50413D1251B08190813120123025C
:1035E000021640E9288201100801010203010A06BF
:1035F000191111134001C50403090413E31C1B082E
:1036000035041A513C13AD221B0875041AC10C1A5B
:103610009908131F211B08310413B51D1B08BF0493
:1036200022481420B11F1408531A1B0873204BE9B9
:1036300023081AC70413251E1B08E5101AD7281AD9
:1036400029081A69281A09481ACF04011C32FF13E5
:10365000B1191B0811042A5D081A187C19081A19D7
:1036600064C11A35141A4D1C1AE5041AF10C811A9A
:103670004D0C140902431302012B8032DB1B0102A3
:103680000B1305241D10010524FE1008042402025A
:1036900005240617010705820308150A09040133EA
:1036A000020A2E0705030240072A8107011568094F
:0C36B00001020304060708090C81000059
:04000005080001519D
:00000001FF
